:020000000328D3
:100006008316031387018312870111308316860036
:1000160083128601831687018312870103308316B4
:10002600860083128601061C1B28861C1B28612855
:100036000714A20114302202031833280830870659
:100046000B30FB002630FC005D30FD00FD0B29283F
:10005600FC0B2928FB0B292800000000A20A1D28FA
:100066000710871507150230FA003130FB006230A1
:10007600FC004530FD00FD0B3E28FC0B3E28FB0B2B
:100086003E28FA0B3E2887148711A201143022025B
:1000960003185F28043087060B30FB002630FC006F
:1000A6005D30FD00FD0B5528FC0B5528FB0B552834
:1000B60000000000A20A49288710071116286228A6
:02400E004A2F37
:00000001FF
