:020000000328D3
:10000600831603138701831287011F308316860028
:1000160083128601061A112887140D2887100618E0
:1000260015281228861C2B2887100630FB00133053
:10003600FC00AD30FD00FD0B1E28FC0B1E28FB0B43
:100046001E2800000000071486192A2827280710F2
:10005600061D3F2886183F2807100630FB00133080
:10006600FC00AD30FD00FD0B3628FC0B3628FB0BE3
:100076003628000000008714061E4228871015281F
:0200860043280D
:02400E004A2F37
:00000001FF
